{
  "contractName": "TouristID",
  "abi": [
    {
      "inputs": [],
      "stateMutability": "nonpayable",
      "type": "constructor"
    },
    {
      "anonymous": false,
      "inputs": [
        {
          "indexed": true,
          "internalType": "address",
          "name": "tourist",
          "type": "address"
        },
        {
          "indexed": false,
          "internalType": "string",
          "name": "kycHash",
          "type": "string"
        },
        {
          "indexed": false,
          "internalType": "uint256",
          "name": "validUntil",
          "type": "uint256"
        }
      ],
      "name": "IDGenerated",
      "type": "event"
    },
    {
      "anonymous": false,
      "inputs": [
        {
          "indexed": true,
          "internalType": "address",
          "name": "police",
          "type": "address"
        },
        {
          "indexed": true,
          "internalType": "address",
          "name": "tourist",
          "type": "address"
        },
        {
          "indexed": false,
          "internalType": "uint256",
          "name": "time",
          "type": "uint256"
        }
      ],
      "name": "PoliceAccess",
      "type": "event"
    },
    {
      "inputs": [],
      "name": "admin",
      "outputs": [
        {
          "internalType": "address",
          "name": "",
          "type": "address"
        }
      ],
      "stateMutability": "view",
      "type": "function"
    },
    {
      "inputs": [
        {
          "internalType": "address",
          "name": "",
          "type": "address"
        }
      ],
      "name": "isPolice",
      "outputs": [
        {
          "internalType": "bool",
          "name": "",
          "type": "bool"
        }
      ],
      "stateMutability": "view",
      "type": "function"
    },
    {
      "inputs": [
        {
          "internalType": "address",
          "name": "",
          "type": "address"
        }
      ],
      "name": "tourists",
      "outputs": [
        {
          "internalType": "string",
          "name": "encryptedName",
          "type": "string"
        },
        {
          "internalType": "string",
          "name": "encryptedNationality",
          "type": "string"
        },
        {
          "internalType": "string",
          "name": "kycHash",
          "type": "string"
        },
        {
          "internalType": "string",
          "name": "ipfsDocHash",
          "type": "string"
        },
        {
          "internalType": "uint256",
          "name": "validUntil",
          "type": "uint256"
        },
        {
          "internalType": "bool",
          "name": "isActive",
          "type": "bool"
        }
      ],
      "stateMutability": "view",
      "type": "function"
    },
    {
      "inputs": [
        {
          "internalType": "address",
          "name": "_tourist",
          "type": "address"
        },
        {
          "internalType": "string",
          "name": "_encryptedName",
          "type": "string"
        },
        {
          "internalType": "string",
          "name": "_encryptedNationality",
          "type": "string"
        },
        {
          "internalType": "string",
          "name": "_kycHash",
          "type": "string"
        },
        {
          "internalType": "string",
          "name": "_ipfsDocHash",
          "type": "string"
        },
        {
          "internalType": "uint256",
          "name": "_validUntil",
          "type": "uint256"
        }
      ],
      "name": "generateID",
      "outputs": [],
      "stateMutability": "nonpayable",
      "type": "function"
    },
    {
      "inputs": [
        {
          "internalType": "address",
          "name": "_tourist",
          "type": "address"
        }
      ],
      "name": "viewTouristDetails",
      "outputs": [
        {
          "internalType": "string",
          "name": "",
          "type": "string"
        },
        {
          "internalType": "string",
          "name": "",
          "type": "string"
        },
        {
          "internalType": "string",
          "name": "",
          "type": "string"
        },
        {
          "internalType": "string",
          "name": "",
          "type": "string"
        },
        {
          "internalType": "uint256",
          "name": "",
          "type": "uint256"
        },
        {
          "internalType": "bool",
          "name": "",
          "type": "bool"
        }
      ],
      "stateMutability": "view",
      "type": "function"
    },
    {
      "inputs": [
        {
          "internalType": "address",
          "name": "_police",
          "type": "address"
        }
      ],
      "name": "addPolice",
      "outputs": [],
      "stateMutability": "nonpayable",
      "type": "function"
    }
  ],
  "bytecode": "0x6080604052348015600e575f5ffd5b505f80546001600160a01b0319163390811782558152600260205260409020805460ff19166001179055610be3806100455f395ff3fe608060405234801561000f575f5ffd5b5060043610610060575f3560e01c80633136489114610064578063349923ea1461009257806382adb9f2146100a7578063e6c525d2146100ba578063f851a440146100ec578063ff8491de14610116575b5f5ffd5b610077610072366004610826565b610129565b60405161008996959493929190610874565b60405180910390f35b6100a56100a036600461097a565b61040a565b005b6100776100b5366004610826565b610554565b6100dc6100c8366004610826565b60026020525f908152604090205460ff1681565b6040519015158152602001610089565b5f546100fe906001600160a01b031681565b6040516001600160a01b039091168152602001610089565b6100a5610124366004610826565b6107a3565b335f90815260026020526040812054606091829182918291819060ff1661018f5760405162461bcd60e51b81526020600482015260156024820152744e6f7420617574686f72697a656420706f6c69636560581b60448201526064015b60405180910390fd5b6001600160a01b0387165f90815260016020819052604090912060048101546005820154825492938493908401926002850192600386019260ff9091169086906101d890610a4d565b80601f016020809104026020016040519081016040528092919081815260200182805461020490610a4d565b801561024f5780601f106102265761010080835404028352916020019161024f565b820191905f5260205f20905b81548152906001019060200180831161023257829003601f168201915b5050505050955084805461026290610a4d565b80601f016020809104026020016040519081016040528092919081815260200182805461028e90610a4d565b80156102d95780601f106102b0576101008083540402835291602001916102d9565b820191905f5260205f20905b8154815290600101906020018083116102bc57829003601f168201915b505050505094508380546102ec90610a4d565b80601f016020809104026020016040519081016040528092919081815260200182805461031890610a4d565b80156103635780601f1061033a57610100808354040283529160200191610363565b820191905f5260205f20905b81548152906001019060200180831161034657829003601f168201915b5050505050935082805461037690610a4d565b80601f01602080910402602001604051908101604052809291908181526020018280546103a290610a4d565b80156103ed5780601f106103c4576101008083540402835291602001916103ed565b820191905f5260205f20905b8154815290600101906020018083116103d057829003601f168201915b505050505092509650965096509650965096505091939550919395565b5f546001600160a01b0316331461044f5760405162461bcd60e51b81526020600482015260096024820152682737ba1030b236b4b760b91b6044820152606401610186565b6040805160c08101825286815260208082018790528183018690526060820185905260808201849052600160a083018190526001600160a01b038a165f908152915291909120815181906104a39082610ad1565b50602082015160018201906104b89082610ad1565b50604082015160028201906104cd9082610ad1565b50606082015160038201906104e29082610ad1565b506080820151600482015560a0909101516005909101805460ff19169115159190911790556040516001600160a01b038716907fbf025989a4d1abdd61ba98affc3c3cf126446507197f0f621ec5c425cda06c3a906105449086908590610b8c565b60405180910390a2505050505050565b60016020525f908152604090208054819061056e90610a4d565b80601f016020809104026020016040519081016040528092919081815260200182805461059a90610a4d565b80156105e55780601f106105bc576101008083540402835291602001916105e5565b820191905f5260205f20905b8154815290600101906020018083116105c857829003601f168201915b5050505050908060010180546105fa90610a4d565b80601f016020809104026020016040519081016040528092919081815260200182805461062690610a4d565b80156106715780601f1061064857610100808354040283529160200191610671565b820191905f5260205f20905b81548152906001019060200180831161065457829003601f168201915b50505050509080600201805461068690610a4d565b80601f01602080910402602001604051908101604052809291908181526020018280546106b290610a4d565b80156106fd5780601f106106d4576101008083540402835291602001916106fd565b820191905f5260205f20905b8154815290600101906020018083116106e057829003601f168201915b50505050509080600301805461071290610a4d565b80601f016020809104026020016040519081016040528092919081815260200182805461073e90610a4d565b80156107895780601f1061076057610100808354040283529160200191610789565b820191905f5260205f20905b81548152906001019060200180831161076c57829003601f168201915b50505050600483015460059093015491929160ff16905086565b5f546001600160a01b031633146107e85760405162461bcd60e51b81526020600482015260096024820152682737ba1030b236b4b760b91b6044820152606401610186565b6001600160a01b03165f908152600260205260409020805460ff19166001179055565b80356001600160a01b0381168114610821575f5ffd5b919050565b5f60208284031215610836575f5ffd5b61083f8261080b565b9392505050565b5f81518084528060208401602086015e5f602082860101526020601f19601f83011685010191505092915050565b60c081525f61088660c0830189610846565b82810360208401526108988189610846565b905082810360408401526108ac8188610846565b905082810360608401526108c08187610846565b6080840195909552505090151560a090910152949350505050565b634e487b7160e01b5f52604160045260245ffd5b5f82601f8301126108fe575f5ffd5b813567ffffffffffffffff811115610918576109186108db565b604051601f8201601f19908116603f0116810167ffffffffffffffff81118282101715610947576109476108db565b60405281815283820160200185101561095e575f5ffd5b816020850160208301375f918101602001919091529392505050565b5f5f5f5f5f5f60c0878903121561098f575f5ffd5b6109988761080b565b9550602087013567ffffffffffffffff8111156109b3575f5ffd5b6109bf89828a016108ef565b955050604087013567ffffffffffffffff8111156109db575f5ffd5b6109e789828a016108ef565b945050606087013567ffffffffffffffff811115610a03575f5ffd5b610a0f89828a016108ef565b935050608087013567ffffffffffffffff811115610a2b575f5ffd5b610a3789828a016108ef565b9699959850939692959460a09093013593505050565b600181811c90821680610a6157607f821691505b602082108103610a7f57634e487b7160e01b5f52602260045260245ffd5b50919050565b601f821115610acc57805f5260205f20601f840160051c81016020851015610aaa5750805b601f840160051c820191505b81811015610ac9575f8155600101610ab6565b50505b505050565b815167ffffffffffffffff811115610aeb57610aeb6108db565b610aff81610af98454610a4d565b84610a85565b6020601f821160018114610b31575f8315610b1a5750848201515b5f19600385901b1c1916600184901b178455610ac9565b5f84815260208120601f198516915b82811015610b605787850151825560209485019460019092019101610b40565b5084821015610b7d57868401515f19600387901b60f8161c191681555b50505050600190811b01905550565b604081525f610b9e6040830185610846565b9050826020830152939250505056fea2646970667358221220011b69238d4fdbc1b21057bc0970938235040cd648a51b5feefa42008453742e64736f6c634300081c0033",
  "immutableReferences": {},
  "source": "// SPDX-License-Identifier: MIT\r\npragma solidity ^0.8.0;\r\n\r\ncontract TouristID {\r\n    struct Tourist {\r\n        string encryptedName;\r\n        string encryptedNationality;\r\n        string kycHash;\r\n        string ipfsDocHash;\r\n        uint validUntil;\r\n        bool isActive;\r\n    }\r\n    address public admin;\r\n    mapping(address => Tourist) public tourists;\r\n    mapping(address => bool) public isPolice;\r\n\r\n    event IDGenerated(address indexed tourist, string kycHash, uint validUntil);\r\n    event PoliceAccess(address indexed police, address indexed tourist, uint time);\r\n\r\n    modifier onlyAdmin() {\r\n        require(msg.sender == admin, \"Not admin\");\r\n        _;\r\n    }\r\n\r\n    modifier onlyPolice() {\r\n        require(isPolice[msg.sender], \"Not authorized police\");\r\n        _;\r\n    }\r\n\r\n    constructor() {\r\n        admin = msg.sender;\r\n        isPolice[admin] = true;\r\n    }\r\n\r\n    function generateID(\r\n        address _tourist,\r\n        string memory _encryptedName,\r\n        string memory _encryptedNationality,\r\n        string memory _kycHash,\r\n        string memory _ipfsDocHash,\r\n        uint _validUntil\r\n    ) public onlyAdmin {\r\n        tourists[_tourist] = Tourist(_encryptedName, _encryptedNationality, _kycHash, _ipfsDocHash, _validUntil, true);\r\n        emit IDGenerated(_tourist, _kycHash, _validUntil);\r\n    }\r\n\r\n    function viewTouristDetails(address _tourist) public view onlyPolice returns (\r\n        string memory, string memory, string memory, string memory, uint, bool\r\n    ) {\r\n        Tourist storage t = tourists[_tourist];\r\n        return (t.encryptedName, t.encryptedNationality, t.kycHash, t.ipfsDocHash, t.validUntil, t.isActive);\r\n    }\r\n\r\n    function addPolice(address _police) public onlyAdmin {\r\n        isPolice[_police] = true;\r\n    }\r\n}\r\n",
  "sourcePath": "C:\\Users\\Mohan\\Desktop\\SIH\\YatraRakshak\\tourist-id-blockchain\\contracts\\TouristID.sol",
  "compiler": {
    "name": "solc",
    "version": "0.8.28+commit.7893614a.Emscripten.clang"
  },
  "schemaVersion": "3.4.16",
  "updatedAt": "2025-09-19T11:58:05.176Z",
  "devdoc": {
    "kind": "dev",
    "methods": {},
    "version": 1
  },
  "userdoc": {
    "kind": "user",
    "methods": {},
    "version": 1
  }
}